{
  "contractName": "Hello",
  "abi": [
    {
      "inputs": [],
      "stateMutability": "nonpayable",
      "type": "constructor"
    },
    {
      "anonymous": false,
      "inputs": [
        {
          "indexed": true,
          "internalType": "address",
          "name": "_from",
          "type": "address"
        },
        {
          "indexed": false,
          "internalType": "uint256",
          "name": "_value",
          "type": "uint256"
        }
      ],
      "name": "messageChanged",
      "type": "event"
    },
    {
      "inputs": [
        {
          "internalType": "string",
          "name": "_message",
          "type": "string"
        }
      ],
      "name": "setMessage",
      "outputs": [
        {
          "internalType": "string",
          "name": "",
          "type": "string"
        }
      ],
      "stateMutability": "payable",
      "type": "function",
      "payable": true
    },
    {
      "inputs": [],
      "name": "getMessage",
      "outputs": [
        {
          "internalType": "string",
          "name": "",
          "type": "string"
        }
      ],
      "stateMutability": "view",
      "type": "function",
      "constant": true
    }
  ],
  "bytecode": "0x608060405234801561001057600080fd5b506040518060400160405280600d81526020017f48656c6c6f2c20576f726c6421000000000000000000000000000000000000008152506000908051906020019061005c929190610062565b50610166565b82805461006e90610105565b90600052602060002090601f01602090048101928261009057600085556100d7565b82601f106100a957805160ff19168380011785556100d7565b828001600101855582156100d7579182015b828111156100d65782518255916020019190600101906100bb565b5b5090506100e491906100e8565b5090565b5b808211156101015760008160009055506001016100e9565b5090565b6000600282049050600182168061011d57607f821691505b6020821081141561013157610130610137565b5b50919050565b7f4e487b7100000000000000000000000000000000000000000000000000000000600052602260045260246000fd5b6105cf806101756000396000f3fe6080604052600436106100295760003560e01c8063368b87721461002e578063ce6d41de1461005e575b600080fd5b61004860048036038101906100439190610327565b610089565b60405161005591906103b8565b60405180910390f35b34801561006a57600080fd5b50610073610182565b60405161008091906103b8565b60405180910390f35b606081600090805190602001906100a1929190610214565b503373ffffffffffffffffffffffffffffffffffffffff167f6296eaee93d54e6bccfc4ab1e8b9204966bceb756d06a5091bfc65be372f2ba8346040516100e891906103da565b60405180910390a2600080546100fd906104b3565b80601f0160208091040260200160405190810160405280929190818152602001828054610129906104b3565b80156101765780601f1061014b57610100808354040283529160200191610176565b820191906000526020600020905b81548152906001019060200180831161015957829003601f168201915b50505050509050919050565b606060008054610191906104b3565b80601f01602080910402602001604051908101604052809291908181526020018280546101bd906104b3565b801561020a5780601f106101df5761010080835404028352916020019161020a565b820191906000526020600020905b8154815290600101906020018083116101ed57829003601f168201915b5050505050905090565b828054610220906104b3565b90600052602060002090601f0160209004810192826102425760008555610289565b82601f1061025b57805160ff1916838001178555610289565b82800160010185558215610289579182015b8281111561028857825182559160200191906001019061026d565b5b509050610296919061029a565b5090565b5b808211156102b357600081600090555060010161029b565b5090565b60006102ca6102c58461041a565b6103f5565b9050828152602081018484840111156102e6576102e5610579565b5b6102f1848285610471565b509392505050565b600082601f83011261030e5761030d610574565b5b813561031e8482602086016102b7565b91505092915050565b60006020828403121561033d5761033c610583565b5b600082013567ffffffffffffffff81111561035b5761035a61057e565b5b610367848285016102f9565b91505092915050565b600061037b8261044b565b6103858185610456565b9350610395818560208601610480565b61039e81610588565b840191505092915050565b6103b281610467565b82525050565b600060208201905081810360008301526103d28184610370565b905092915050565b60006020820190506103ef60008301846103a9565b92915050565b60006103ff610410565b905061040b82826104e5565b919050565b6000604051905090565b600067ffffffffffffffff82111561043557610434610545565b5b61043e82610588565b9050602081019050919050565b600081519050919050565b600082825260208201905092915050565b6000819050919050565b82818337600083830152505050565b60005b8381101561049e578082015181840152602081019050610483565b838111156104ad576000848401525b50505050565b600060028204905060018216806104cb57607f821691505b602082108114156104df576104de610516565b5b50919050565b6104ee82610588565b810181811067ffffffffffffffff8211171561050d5761050c610545565b5b80604052505050565b7f4e487b7100000000000000000000000000000000000000000000000000000000600052602260045260246000fd5b7f4e487b7100000000000000000000000000000000000000000000000000000000600052604160045260246000fd5b600080fd5b600080fd5b600080fd5b600080fd5b6000601f19601f830116905091905056fea2646970667358221220bd23e9640dd4dd2603baceee420b918330d91e752b0d50efb93e686f5b33295664736f6c63430008060033",
  "immutableReferences": {},
  "source": "// SPDX-License-Identifier: MIT\npragma solidity ^0.8.6;\n\ncontract Hello {\n    string message;\n\n    event messageChanged(address indexed _from, uint _value);\n    constructor() {\n        message = \"Hello, World!\";\n    }\n\n    function setMessage(string memory _message) public payable returns (string memory) {\n        message = _message;\n        emit messageChanged(msg.sender, msg.value);\n        return message;\n    }\n\n    function getMessage() public view returns (string memory) {\n        return message;\n    }\n}",
  "sourcePath": "/Users/emregulay/WebstormProjects/blockchain-playground/contracts/Hello.sol",
  "compiler": {
    "name": "solc",
    "version": "0.8.6+commit.11564f7e.Emscripten.clang"
  },
  "schemaVersion": "3.4.13",
  "updatedAt": "2023-03-12T19:45:45.198Z",
  "networkType": "ethereum",
  "devdoc": {
    "kind": "dev",
    "methods": {},
    "version": 1
  },
  "userdoc": {
    "kind": "user",
    "methods": {},
    "version": 1
  }
}