{
  "contractName": "Pokemon",
  "abi": [
    {
      "inputs": [
        {
          "internalType": "string",
          "name": "_name",
          "type": "string"
        },
        {
          "internalType": "uint256",
          "name": "_level",
          "type": "uint256"
        }
      ],
      "stateMutability": "nonpayable",
      "type": "constructor"
    },
    {
      "anonymous": false,
      "inputs": [
        {
          "indexed": false,
          "internalType": "string",
          "name": "winner",
          "type": "string"
        },
        {
          "indexed": false,
          "internalType": "string",
          "name": "loser",
          "type": "string"
        },
        {
          "indexed": false,
          "internalType": "uint256",
          "name": "health",
          "type": "uint256"
        }
      ],
      "name": "Battle",
      "type": "event"
    },
    {
      "anonymous": false,
      "inputs": [
        {
          "indexed": false,
          "internalType": "address",
          "name": "newOwner",
          "type": "address"
        }
      ],
      "name": "OwnerChanged",
      "type": "event"
    },
    {
      "anonymous": false,
      "inputs": [
        {
          "indexed": false,
          "internalType": "uint256",
          "name": "newPrice",
          "type": "uint256"
        }
      ],
      "name": "PriceChanged",
      "type": "event"
    },
    {
      "anonymous": false,
      "inputs": [
        {
          "indexed": false,
          "internalType": "address",
          "name": "oldOwner",
          "type": "address"
        },
        {
          "indexed": false,
          "internalType": "address",
          "name": "newOwner",
          "type": "address"
        },
        {
          "indexed": false,
          "internalType": "uint256",
          "name": "price",
          "type": "uint256"
        }
      ],
      "name": "Sold",
      "type": "event"
    },
    {
      "inputs": [],
      "name": "health",
      "outputs": [
        {
          "internalType": "uint256",
          "name": "",
          "type": "uint256"
        }
      ],
      "stateMutability": "view",
      "type": "function",
      "constant": true
    },
    {
      "inputs": [],
      "name": "level",
      "outputs": [
        {
          "internalType": "uint256",
          "name": "",
          "type": "uint256"
        }
      ],
      "stateMutability": "view",
      "type": "function",
      "constant": true
    },
    {
      "inputs": [],
      "name": "name",
      "outputs": [
        {
          "internalType": "string",
          "name": "",
          "type": "string"
        }
      ],
      "stateMutability": "view",
      "type": "function",
      "constant": true
    },
    {
      "inputs": [],
      "name": "opponent",
      "outputs": [
        {
          "internalType": "address",
          "name": "",
          "type": "address"
        }
      ],
      "stateMutability": "view",
      "type": "function",
      "constant": true
    },
    {
      "inputs": [],
      "name": "owner",
      "outputs": [
        {
          "internalType": "address",
          "name": "",
          "type": "address"
        }
      ],
      "stateMutability": "view",
      "type": "function",
      "constant": true
    },
    {
      "inputs": [],
      "name": "price",
      "outputs": [
        {
          "internalType": "uint256",
          "name": "",
          "type": "uint256"
        }
      ],
      "stateMutability": "view",
      "type": "function",
      "constant": true
    },
    {
      "inputs": [
        {
          "internalType": "uint256",
          "name": "_newLevel",
          "type": "uint256"
        }
      ],
      "name": "setLevel",
      "outputs": [],
      "stateMutability": "nonpayable",
      "type": "function"
    },
    {
      "inputs": [
        {
          "internalType": "address",
          "name": "_newOwner",
          "type": "address"
        }
      ],
      "name": "transferOwnership",
      "outputs": [],
      "stateMutability": "nonpayable",
      "type": "function"
    },
    {
      "inputs": [
        {
          "internalType": "address",
          "name": "_opponent",
          "type": "address"
        }
      ],
      "name": "fightOrFlight",
      "outputs": [],
      "stateMutability": "nonpayable",
      "type": "function"
    },
    {
      "inputs": [
        {
          "internalType": "uint256",
          "name": "_opponentLevel",
          "type": "uint256"
        }
      ],
      "name": "battle",
      "outputs": [
        {
          "internalType": "string",
          "name": "",
          "type": "string"
        }
      ],
      "stateMutability": "nonpayable",
      "type": "function"
    },
    {
      "inputs": [
        {
          "internalType": "uint256",
          "name": "_newPrice",
          "type": "uint256"
        }
      ],
      "name": "setPrice",
      "outputs": [],
      "stateMutability": "nonpayable",
      "type": "function"
    },
    {
      "inputs": [],
      "name": "getPokemon",
      "outputs": [
        {
          "internalType": "address",
          "name": "",
          "type": "address"
        },
        {
          "internalType": "string",
          "name": "",
          "type": "string"
        },
        {
          "internalType": "uint256",
          "name": "",
          "type": "uint256"
        },
        {
          "internalType": "uint256",
          "name": "",
          "type": "uint256"
        }
      ],
      "stateMutability": "view",
      "type": "function",
      "constant": true
    },
    {
      "inputs": [],
      "name": "getPrice",
      "outputs": [
        {
          "internalType": "uint256",
          "name": "",
          "type": "uint256"
        }
      ],
      "stateMutability": "view",
      "type": "function",
      "constant": true
    },
    {
      "inputs": [],
      "name": "buyPokemon",
      "outputs": [],
      "stateMutability": "payable",
      "type": "function",
      "payable": true
    }
  ],
  "bytecode": "0x60806040523480156200001157600080fd5b5060405162001973380380620019738339818101604052810190620000379190620001e5565b81600090805190602001906200004f929190620000a0565b508060018190555033600260006101000a81548173ffffffffffffffffffffffffffffffffffffffff021916908373ffffffffffffffffffffffffffffffffffffffff1602179055505050620003f3565b828054620000ae90620002ea565b90600052602060002090601f016020900481019282620000d257600085556200011e565b82601f10620000ed57805160ff19168380011785556200011e565b828001600101855582156200011e579182015b828111156200011d57825182559160200191906001019062000100565b5b5090506200012d919062000131565b5090565b5b808211156200014c57600081600090555060010162000132565b5090565b600062000167620001618462000274565b6200024b565b905082815260208101848484011115620001865762000185620003b9565b5b62000193848285620002b4565b509392505050565b600082601f830112620001b357620001b2620003b4565b5b8151620001c584826020860162000150565b91505092915050565b600081519050620001df81620003d9565b92915050565b60008060408385031215620001ff57620001fe620003c3565b5b600083015167ffffffffffffffff81111562000220576200021f620003be565b5b6200022e858286016200019b565b92505060206200024185828601620001ce565b9150509250929050565b6000620002576200026a565b905062000265828262000320565b919050565b6000604051905090565b600067ffffffffffffffff82111562000292576200029162000385565b5b6200029d82620003c8565b9050602081019050919050565b6000819050919050565b60005b83811015620002d4578082015181840152602081019050620002b7565b83811115620002e4576000848401525b50505050565b600060028204905060018216806200030357607f821691505b602082108114156200031a576200031962000356565b5b50919050565b6200032b82620003c8565b810181811067ffffffffffffffff821117156200034d576200034c62000385565b5b80604052505050565b7f4e487b7100000000000000000000000000000000000000000000000000000000600052602260045260246000fd5b7f4e487b7100000000000000000000000000000000000000000000000000000000600052604160045260246000fd5b600080fd5b600080fd5b600080fd5b600080fd5b6000601f19601f8301169050919050565b620003e481620002aa565b8114620003f057600080fd5b50565b61157080620004036000396000f3fe6080604052600436106100dd5760003560e01c806391b7f5ed1161007f57806398d5fdca1161005957806398d5fdca1461029f578063a035b1fe146102ca578063c78bc15f146102f5578063f2fde38b146102ff576100dd565b806391b7f5ed14610222578063935f9e2f1461024b57806393694f6714610274576100dd565b80636fd5ae15116100bb5780636fd5ae15146101735780637633a22c1461019e57806387e24c72146101c95780638da5cb5b146101f7576100dd565b806306fdde03146100e257806327a5428b1461010d5780635d6de79614610136575b600080fd5b3480156100ee57600080fd5b506100f7610328565b6040516101049190610f6f565b60405180910390f35b34801561011957600080fd5b50610134600480360381019061012f9190610c83565b6103b6565b005b34801561014257600080fd5b5061015d60048036038101906101589190610c83565b610450565b60405161016a9190610f6f565b60405180910390f35b34801561017f57600080fd5b50610188610671565b6040516101959190611138565b60405180910390f35b3480156101aa57600080fd5b506101b3610677565b6040516101c09190611138565b60405180910390f35b3480156101d557600080fd5b506101de61067d565b6040516101ee9493929190610f23565b60405180910390f35b34801561020357600080fd5b5061020c610749565b6040516102199190610ed1565b60405180910390f35b34801561022e57600080fd5b5061024960048036038101906102449190610c83565b61076f565b005b34801561025757600080fd5b50610272600480360381019061026d9190610c56565b610840565b005b34801561028057600080fd5b50610289610929565b6040516102969190610ed1565b60405180910390f35b3480156102ab57600080fd5b506102b461094f565b6040516102c19190611138565b60405180910390f35b3480156102d657600080fd5b506102df610959565b6040516102ec9190611138565b60405180910390f35b6102fd61095f565b005b34801561030b57600080fd5b5061032660048036038101906103219190610c56565b610b21565b005b6000805461033590611283565b80601f016020809104026020016040519081016040528092919081815260200182805461036190611283565b80156103ae5780601f10610383576101008083540402835291602001916103ae565b820191906000526020600020905b81548152906001019060200180831161039157829003601f168201915b505050505081565b600260009054906101000a900473ffffffffffffffffffffffffffffffffffffffff1673ffffffffffffffffffffffffffffffffffffffff163373ffffffffffffffffffffffffffffffffffffffff1614610446576040517f08c379a000000000000000000000000000000000000000000000000000000000815260040161043d90610ff4565b60405180910390fd5b8060018190555050565b6060600360009054906101000a900473ffffffffffffffffffffffffffffffffffffffff1673ffffffffffffffffffffffffffffffffffffffff163373ffffffffffffffffffffffffffffffffffffffff16146104e2576040517f08c379a00000000000000000000000000000000000000000000000000000000081526004016104d990610fd4565b60405180910390fd5b6000600a836104f19190611184565b9050806004541115610577577fbb2f0ea805934331e57b717f82a43aee6f727e9d937a5dd0fedfc8bce721f52e6000600454604051610531929190610f91565b60405180910390a16040518060400160405280601381526020017f596f7520776f6e2074686520626174746c65210000000000000000000000000081525091505061066c565b8060045410156105f9577fbb2f0ea805934331e57b717f82a43aee6f727e9d937a5dd0fedfc8bce721f52e6000826040516105b3929190611054565b60405180910390a16040518060400160405280601681526020017f596f75206c6f73742074686520626174746c65203a280000000000000000000081525091505061066c565b7fbb2f0ea805934331e57b717f82a43aee6f727e9d937a5dd0fedfc8bce721f52e60045460405161062a9190611097565b60405180910390a16040518060400160405280601a81526020017f54686520626174746c6520656e64656420696e2061207469652e0000000000008152509150505b919050565b60015481565b60045481565b60006060600080600260009054906101000a900473ffffffffffffffffffffffffffffffffffffffff1660006001546005548280546106bb90611283565b80601f01602080910402602001604051908101604052809291908181526020018280546106e790611283565b80156107345780601f1061070957610100808354040283529160200191610734565b820191906000526020600020905b81548152906001019060200180831161071757829003601f168201915b50505050509250935093509350935090919293565b600260009054906101000a900473ffffffffffffffffffffffffffffffffffffffff1681565b600260009054906101000a900473ffffffffffffffffffffffffffffffffffffffff1673ffffffffffffffffffffffffffffffffffffffff163373ffffffffffffffffffffffffffffffffffffffff16146107ff576040517f08c379a00000000000000000000000000000000000000000000000000000000081526004016107f690611034565b60405180910390fd5b806005819055507fa6dc15bdb68da224c66db4b3838d9a2b205138e8cff6774e57d0af91e196d622816040516108359190611138565b60405180910390a150565b600260009054906101000a900473ffffffffffffffffffffffffffffffffffffffff1673ffffffffffffffffffffffffffffffffffffffff163373ffffffffffffffffffffffffffffffffffffffff16146108d0576040517f08c379a00000000000000000000000000000000000000000000000000000000081526004016108c790611118565b60405180910390fd5b80600360006101000a81548173ffffffffffffffffffffffffffffffffffffffff021916908373ffffffffffffffffffffffffffffffffffffffff160217905550600a6001546109209190611184565b60048190555050565b600360009054906101000a900473ffffffffffffffffffffffffffffffffffffffff1681565b6000600554905090565b60055481565b600260009054906101000a900473ffffffffffffffffffffffffffffffffffffffff1673ffffffffffffffffffffffffffffffffffffffff163373ffffffffffffffffffffffffffffffffffffffff1614156109f0576040517f08c379a00000000000000000000000000000000000000000000000000000000081526004016109e7906110d8565b60405180910390fd5b6005543414610a34576040517f08c379a0000000000000000000000000000000000000000000000000000000008152600401610a2b906110f8565b60405180910390fd5b6000600260009054906101000a900473ffffffffffffffffffffffffffffffffffffffff16905033600260006101000a81548173ffffffffffffffffffffffffffffffffffffffff021916908373ffffffffffffffffffffffffffffffffffffffff1602179055508073ffffffffffffffffffffffffffffffffffffffff166108fc349081150290604051600060405180830381858888f19350505050158015610ae2573d6000803e3d6000fd5b507ff3ecb4dab83f41da3035ff9cb3a2ef0c3027ebb89ae4e4b822d7c109e869a2fc813334604051610b1693929190610eec565b60405180910390a150565b600260009054906101000a900473ffffffffffffffffffffffffffffffffffffffff1673ffffffffffffffffffffffffffffffffffffffff163373ffffffffffffffffffffffffffffffffffffffff1614610bb1576040517f08c379a0000000000000000000000000000000000000000000000000000000008152600401610ba890611014565b60405180910390fd5b80600260006101000a81548173ffffffffffffffffffffffffffffffffffffffff021916908373ffffffffffffffffffffffffffffffffffffffff1602179055507fa2ea9883a321a3e97b8266c2b078bfeec6d50c711ed71f874a90d500ae2eaf3681604051610c219190610ed1565b60405180910390a150565b600081359050610c3b8161150c565b92915050565b600081359050610c5081611523565b92915050565b600060208284031215610c6c57610c6b611313565b5b6000610c7a84828501610c2c565b91505092915050565b600060208284031215610c9957610c98611313565b5b6000610ca784828501610c41565b91505092915050565b610cb98161121a565b82525050565b610cc8816111de565b82525050565b6000610cd982611168565b610ce38185611173565b9350610cf3818560208601611250565b610cfc81611318565b840191505092915050565b60008154610d1481611283565b610d1e8186611173565b94506001821660008114610d395760018114610d4b57610d7e565b60ff1983168652602086019350610d7e565b610d5485611153565b60005b83811015610d7657815481890152600182019150602081019050610d57565b808801955050505b50505092915050565b6000610d94601883611173565b9150610d9f82611329565b602082019050919050565b6000610db7602083611173565b9150610dc282611352565b602082019050919050565b6000610dda602583611173565b9150610de58261137b565b604082019050919050565b6000610dfd602083611173565b9150610e08826113ca565b602082019050919050565b6000610e20600883611173565b9150610e2b826113f3565b602082019050919050565b6000610e43600383611173565b9150610e4e8261141c565b602082019050919050565b6000610e66601c83611173565b9150610e7182611445565b602082019050919050565b6000610e89602783611173565b9150610e948261146e565b604082019050919050565b6000610eac602483611173565b9150610eb7826114bd565b604082019050919050565b610ecb81611210565b82525050565b6000602082019050610ee66000830184610cbf565b92915050565b6000606082019050610f016000830186610cb0565b610f0e6020830185610cbf565b610f1b6040830184610ec2565b949350505050565b6000608082019050610f386000830187610cbf565b8181036020830152610f4a8186610cce565b9050610f596040830185610ec2565b610f666060830184610ec2565b95945050505050565b60006020820190508181036000830152610f898184610cce565b905092915050565b60006060820190508181036000830152610fab8185610d07565b90508181036020830152610fbe81610e13565b9050610fcd6040830184610ec2565b9392505050565b60006020820190508181036000830152610fed81610d87565b9050919050565b6000602082019050818103600083015261100d81610daa565b9050919050565b6000602082019050818103600083015261102d81610dcd565b9050919050565b6000602082019050818103600083015261104d81610df0565b9050919050565b6000606082019050818103600083015261106d81610e13565b905081810360208301526110818185610d07565b90506110906040830184610ec2565b9392505050565b600060608201905081810360008301526110b081610e36565b905081810360208301526110c381610e36565b90506110d26040830184610ec2565b92915050565b600060208201905081810360008301526110f181610e59565b9050919050565b6000602082019050818103600083015261111181610e7c565b9050919050565b6000602082019050818103600083015261113181610e9f565b9050919050565b600060208201905061114d6000830184610ec2565b92915050565b60008190508160005260206000209050919050565b600081519050919050565b600082825260208201905092915050565b600061118f82611210565b915061119a83611210565b9250817fffffffffffffffffffffffffffffffffffffffffffffffffffffffffffffffff04831182151516156111d3576111d26112b5565b5b828202905092915050565b60006111e9826111f0565b9050919050565b600073ffffffffffffffffffffffffffffffffffffffff82169050919050565b6000819050919050565b60006112258261122c565b9050919050565b60006112378261123e565b9050919050565b6000611249826111f0565b9050919050565b60005b8381101561126e578082015181840152602081019050611253565b8381111561127d576000848401525b50505050565b6000600282049050600182168061129b57607f821691505b602082108114156112af576112ae6112e4565b5b50919050565b7f4e487b7100000000000000000000000000000000000000000000000000000000600052601160045260246000fd5b7f4e487b7100000000000000000000000000000000000000000000000000000000600052602260045260246000fd5b600080fd5b6000601f19601f8301169050919050565b7f596f7520617265206e6f7420746865206f70706f6e656e740000000000000000600082015250565b7f4f6e6c7920746865206f776e65722063616e2073657420746865206c6576656c600082015250565b7f4f6e6c7920746865206f776e65722063616e207472616e73666572206f776e6560008201527f7273686970000000000000000000000000000000000000000000000000000000602082015250565b7f4f6e6c7920746865206f776e65722063616e2073657420746865207072696365600082015250565b7f4f70706f6e656e74000000000000000000000000000000000000000000000000600082015250565b7f5469650000000000000000000000000000000000000000000000000000000000600082015250565b7f596f7520616c7265616479206f776e207468697320506f6b656d6f6e00000000600082015250565b7f54686520707269636520646f6573206e6f74206d61746368207468652076616c60008201527f75652073656e7400000000000000000000000000000000000000000000000000602082015250565b7f4f6e6c7920746865206f776e65722063616e20696e697469617465206120626160008201527f74746c6500000000000000000000000000000000000000000000000000000000602082015250565b611515816111de565b811461152057600080fd5b50565b61152c81611210565b811461153757600080fd5b5056fea2646970667358221220dfc2d5b316d1c67434f18273726537656c20346d2f4b008b9605b8707eb81d7b64736f6c63430008060033",
  "immutableReferences": {},
  "source": "// SPDX-License-Identifier: MIT\npragma solidity >=0.4.22 <0.9.0;\n\ncontract Pokemon {\n    string public name;\n    uint256 public level;\n    address public owner;\n    address public opponent;\n    uint256 public health;\n    uint256 public price;\n\n    event Battle(string winner, string loser, uint256 health);\n    event OwnerChanged(address newOwner);\n    event PriceChanged(uint256 newPrice);\n    event Sold(address oldOwner, address newOwner, uint256 price);\n\n    constructor(string memory _name, uint256 _level) {\n        name = _name;\n        level = _level;\n        owner = msg.sender;\n    }\n\n    function setLevel(uint256 _newLevel) public {\n        require(msg.sender == owner, \"Only the owner can set the level\");\n        level = _newLevel;\n    }\n\n    function transferOwnership(address _newOwner) public {\n        require(msg.sender == owner, \"Only the owner can transfer ownership\");\n        owner = _newOwner;\n        emit OwnerChanged(_newOwner);\n    }\n\n    function fightOrFlight(address _opponent) public {\n        require(msg.sender == owner, \"Only the owner can initiate a battle\");\n        opponent = _opponent;\n        health = level * 10;\n    }\n\n    function battle(uint256 _opponentLevel) public returns (string memory) {\n        require(msg.sender == opponent, \"You are not the opponent\");\n        uint256 opponentHealth = _opponentLevel * 10;\n        if (health > opponentHealth) {\n            emit Battle(name, \"Opponent\", health);\n            return \"You won the battle!\";\n        }\n        else if (health < opponentHealth) {\n            emit Battle(\"Opponent\", name, opponentHealth);\n            return \"You lost the battle :(\";\n        }\n        else {\n            emit Battle(\"Tie\", \"Tie\", health);\n            return \"The battle ended in a tie.\";\n        }\n    }\n\n    function setPrice(uint256 _newPrice) public {\n        require(msg.sender == owner, \"Only the owner can set the price\");\n        price = _newPrice;\n        emit PriceChanged(_newPrice);\n    }\n\n    function getPokemon() public view returns (address, string memory, uint256, uint256) {\n        return (owner, name, level, price);\n    }\n\n    function getPrice() public view returns (uint256) {\n        return price;\n    }\n\n    function buyPokemon() public payable {\n        require(msg.sender != owner, \"You already own this Pokemon\");\n        require(msg.value == price, \"The price does not match the value sent\");\n        address payable oldOwner = payable(owner);\n        owner = msg.sender;\n        oldOwner.transfer(msg.value);\n        emit Sold(oldOwner, msg.sender, msg.value);\n    }\n}",
  "sourcePath": "/Users/emregulay/WebstormProjects/blockchain-playground/contracts/Pokemon.sol",
  "compiler": {
    "name": "solc",
    "version": "0.8.6+commit.11564f7e.Emscripten.clang"
  },
  "schemaVersion": "3.4.13",
  "updatedAt": "2023-03-12T19:45:45.201Z",
  "networkType": "ethereum",
  "devdoc": {
    "kind": "dev",
    "methods": {},
    "version": 1
  },
  "userdoc": {
    "kind": "user",
    "methods": {},
    "version": 1
  }
}