{
  "contractName": "Pokemon",
  "abi": [
    {
      "inputs": [
        {
          "internalType": "string",
          "name": "_name",
          "type": "string"
        },
        {
          "internalType": "uint256",
          "name": "_level",
          "type": "uint256"
        },
        {
          "internalType": "uint256",
          "name": "_health",
          "type": "uint256"
        },
        {
          "internalType": "address",
          "name": "_opponent",
          "type": "address"
        },
        {
          "internalType": "uint256",
          "name": "_price",
          "type": "uint256"
        }
      ],
      "stateMutability": "nonpayable",
      "type": "constructor"
    },
    {
      "anonymous": false,
      "inputs": [
        {
          "indexed": false,
          "internalType": "string",
          "name": "winner",
          "type": "string"
        },
        {
          "indexed": false,
          "internalType": "string",
          "name": "loser",
          "type": "string"
        },
        {
          "indexed": false,
          "internalType": "uint256",
          "name": "health",
          "type": "uint256"
        }
      ],
      "name": "Battle",
      "type": "event"
    },
    {
      "anonymous": false,
      "inputs": [
        {
          "indexed": false,
          "internalType": "address",
          "name": "newOwner",
          "type": "address"
        }
      ],
      "name": "OwnerChanged",
      "type": "event"
    },
    {
      "anonymous": false,
      "inputs": [
        {
          "indexed": false,
          "internalType": "uint256",
          "name": "newPrice",
          "type": "uint256"
        }
      ],
      "name": "PriceChanged",
      "type": "event"
    },
    {
      "anonymous": false,
      "inputs": [
        {
          "indexed": false,
          "internalType": "address",
          "name": "oldOwner",
          "type": "address"
        },
        {
          "indexed": false,
          "internalType": "address",
          "name": "newOwner",
          "type": "address"
        },
        {
          "indexed": false,
          "internalType": "uint256",
          "name": "price",
          "type": "uint256"
        }
      ],
      "name": "Sold",
      "type": "event"
    },
    {
      "inputs": [],
      "name": "health",
      "outputs": [
        {
          "internalType": "uint256",
          "name": "",
          "type": "uint256"
        }
      ],
      "stateMutability": "view",
      "type": "function",
      "constant": true
    },
    {
      "inputs": [],
      "name": "level",
      "outputs": [
        {
          "internalType": "uint256",
          "name": "",
          "type": "uint256"
        }
      ],
      "stateMutability": "view",
      "type": "function",
      "constant": true
    },
    {
      "inputs": [],
      "name": "name",
      "outputs": [
        {
          "internalType": "string",
          "name": "",
          "type": "string"
        }
      ],
      "stateMutability": "view",
      "type": "function",
      "constant": true
    },
    {
      "inputs": [],
      "name": "opponent",
      "outputs": [
        {
          "internalType": "address",
          "name": "",
          "type": "address"
        }
      ],
      "stateMutability": "view",
      "type": "function",
      "constant": true
    },
    {
      "inputs": [],
      "name": "owner",
      "outputs": [
        {
          "internalType": "address",
          "name": "",
          "type": "address"
        }
      ],
      "stateMutability": "view",
      "type": "function",
      "constant": true
    },
    {
      "inputs": [],
      "name": "price",
      "outputs": [
        {
          "internalType": "uint256",
          "name": "",
          "type": "uint256"
        }
      ],
      "stateMutability": "view",
      "type": "function",
      "constant": true
    },
    {
      "inputs": [
        {
          "internalType": "uint256",
          "name": "_newLevel",
          "type": "uint256"
        }
      ],
      "name": "setLevel",
      "outputs": [],
      "stateMutability": "nonpayable",
      "type": "function"
    },
    {
      "inputs": [
        {
          "internalType": "address",
          "name": "_newOwner",
          "type": "address"
        }
      ],
      "name": "transferOwnership",
      "outputs": [],
      "stateMutability": "nonpayable",
      "type": "function"
    },
    {
      "inputs": [
        {
          "internalType": "address",
          "name": "_opponent",
          "type": "address"
        }
      ],
      "name": "fightOrFlight",
      "outputs": [],
      "stateMutability": "nonpayable",
      "type": "function"
    },
    {
      "inputs": [],
      "name": "battle",
      "outputs": [
        {
          "internalType": "string",
          "name": "",
          "type": "string"
        }
      ],
      "stateMutability": "nonpayable",
      "type": "function"
    },
    {
      "inputs": [
        {
          "internalType": "uint256",
          "name": "_newPrice",
          "type": "uint256"
        }
      ],
      "name": "setPrice",
      "outputs": [],
      "stateMutability": "nonpayable",
      "type": "function"
    },
    {
      "inputs": [],
      "name": "getPokemon",
      "outputs": [
        {
          "internalType": "address",
          "name": "",
          "type": "address"
        },
        {
          "internalType": "string",
          "name": "",
          "type": "string"
        },
        {
          "internalType": "uint256",
          "name": "",
          "type": "uint256"
        },
        {
          "internalType": "uint256",
          "name": "",
          "type": "uint256"
        }
      ],
      "stateMutability": "view",
      "type": "function",
      "constant": true
    },
    {
      "inputs": [],
      "name": "getPrice",
      "outputs": [
        {
          "internalType": "uint256",
          "name": "",
          "type": "uint256"
        }
      ],
      "stateMutability": "view",
      "type": "function",
      "constant": true
    },
    {
      "inputs": [],
      "name": "buyPokemon",
      "outputs": [],
      "stateMutability": "payable",
      "type": "function",
      "payable": true
    }
  ],
  "bytecode": "0x60806040523480156200001157600080fd5b5060405162001a5938038062001a5983398181016040528101906200003791906200024e565b84600090805190602001906200004f929190620000f2565b508360018190555033600260006101000a81548173ffffffffffffffffffffffffffffffffffffffff021916908373ffffffffffffffffffffffffffffffffffffffff16021790555081600360006101000a81548173ffffffffffffffffffffffffffffffffffffffff021916908373ffffffffffffffffffffffffffffffffffffffff16021790555082600481905550806005819055505050505050620004eb565b8280546200010090620003c8565b90600052602060002090601f01602090048101928262000124576000855562000170565b82601f106200013f57805160ff191683800117855562000170565b8280016001018555821562000170579182015b828111156200016f57825182559160200191906001019062000152565b5b5090506200017f919062000183565b5090565b5b808211156200019e57600081600090555060010162000184565b5090565b6000620001b9620001b3846200031e565b620002f5565b905082815260208101848484011115620001d857620001d762000497565b5b620001e584828562000392565b509392505050565b600081519050620001fe81620004b7565b92915050565b600082601f8301126200021c576200021b62000492565b5b81516200022e848260208601620001a2565b91505092915050565b6000815190506200024881620004d1565b92915050565b600080600080600060a086880312156200026d576200026c620004a1565b5b600086015167ffffffffffffffff8111156200028e576200028d6200049c565b5b6200029c8882890162000204565b9550506020620002af8882890162000237565b9450506040620002c28882890162000237565b9350506060620002d588828901620001ed565b9250506080620002e88882890162000237565b9150509295509295909350565b60006200030162000314565b90506200030f8282620003fe565b919050565b6000604051905090565b600067ffffffffffffffff8211156200033c576200033b62000463565b5b6200034782620004a6565b9050602081019050919050565b6000620003618262000368565b9050919050565b600073ffffffffffffffffffffffffffffffffffffffff82169050919050565b6000819050919050565b60005b83811015620003b257808201518184015260208101905062000395565b83811115620003c2576000848401525b50505050565b60006002820490506001821680620003e157607f821691505b60208210811415620003f857620003f762000434565b5b50919050565b6200040982620004a6565b810181811067ffffffffffffffff821117156200042b576200042a62000463565b5b80604052505050565b7f4e487b7100000000000000000000000000000000000000000000000000000000600052602260045260246000fd5b7f4e487b7100000000000000000000000000000000000000000000000000000000600052604160045260246000fd5b600080fd5b600080fd5b600080fd5b600080fd5b6000601f19601f8301169050919050565b620004c28162000354565b8114620004ce57600080fd5b50565b620004dc8162000388565b8114620004e857600080fd5b50565b61155e80620004fb6000396000f3fe6080604052600436106100dd5760003560e01c806391b7f5ed1161007f57806398d5fdca1161005957806398d5fdca1461028d578063a035b1fe146102b8578063c78bc15f146102e3578063f2fde38b146102ed576100dd565b806391b7f5ed14610210578063935f9e2f1461023957806393694f6714610262576100dd565b80636fd5ae15116100bb5780636fd5ae15146101615780637633a22c1461018c57806387e24c72146101b75780638da5cb5b146101e5576100dd565b806306fdde03146100e257806327a5428b1461010d57806344e4454514610136575b600080fd5b3480156100ee57600080fd5b506100f7610316565b6040516101049190610f5d565b60405180910390f35b34801561011957600080fd5b50610134600480360381019061012f9190610c71565b6103a4565b005b34801561014257600080fd5b5061014b61043e565b6040516101589190610f5d565b60405180910390f35b34801561016d57600080fd5b5061017661065f565b6040516101839190611126565b60405180910390f35b34801561019857600080fd5b506101a1610665565b6040516101ae9190611126565b60405180910390f35b3480156101c357600080fd5b506101cc61066b565b6040516101dc9493929190610f11565b60405180910390f35b3480156101f157600080fd5b506101fa610737565b6040516102079190610ebf565b60405180910390f35b34801561021c57600080fd5b5061023760048036038101906102329190610c71565b61075d565b005b34801561024557600080fd5b50610260600480360381019061025b9190610c44565b61082e565b005b34801561026e57600080fd5b50610277610917565b6040516102849190610ebf565b60405180910390f35b34801561029957600080fd5b506102a261093d565b6040516102af9190611126565b60405180910390f35b3480156102c457600080fd5b506102cd610947565b6040516102da9190611126565b60405180910390f35b6102eb61094d565b005b3480156102f957600080fd5b50610314600480360381019061030f9190610c44565b610b0f565b005b6000805461032390611271565b80601f016020809104026020016040519081016040528092919081815260200182805461034f90611271565b801561039c5780601f106103715761010080835404028352916020019161039c565b820191906000526020600020905b81548152906001019060200180831161037f57829003601f168201915b505050505081565b600260009054906101000a900473ffffffffffffffffffffffffffffffffffffffff1673ffffffffffffffffffffffffffffffffffffffff163373ffffffffffffffffffffffffffffffffffffffff1614610434576040517f08c379a000000000000000000000000000000000000000000000000000000000815260040161042b90610fe2565b60405180910390fd5b8060018190555050565b6060600360009054906101000a900473ffffffffffffffffffffffffffffffffffffffff1673ffffffffffffffffffffffffffffffffffffffff163373ffffffffffffffffffffffffffffffffffffffff16146104d0576040517f08c379a00000000000000000000000000000000000000000000000000000000081526004016104c790610fc2565b60405180910390fd5b6000600a6001546104e19190611172565b9050806004541115610567577fbb2f0ea805934331e57b717f82a43aee6f727e9d937a5dd0fedfc8bce721f52e6000600454604051610521929190610f7f565b60405180910390a16040518060400160405280601381526020017f596f7520776f6e2074686520626174746c65210000000000000000000000000081525091505061065c565b8060045410156105e9577fbb2f0ea805934331e57b717f82a43aee6f727e9d937a5dd0fedfc8bce721f52e6000826040516105a3929190611042565b60405180910390a16040518060400160405280601681526020017f596f75206c6f73742074686520626174746c65203a280000000000000000000081525091505061065c565b7fbb2f0ea805934331e57b717f82a43aee6f727e9d937a5dd0fedfc8bce721f52e60045460405161061a9190611085565b60405180910390a16040518060400160405280601a81526020017f54686520626174746c6520656e64656420696e2061207469652e0000000000008152509150505b90565b60015481565b60045481565b60006060600080600260009054906101000a900473ffffffffffffffffffffffffffffffffffffffff1660006001546005548280546106a990611271565b80601f01602080910402602001604051908101604052809291908181526020018280546106d590611271565b80156107225780601f106106f757610100808354040283529160200191610722565b820191906000526020600020905b81548152906001019060200180831161070557829003601f168201915b50505050509250935093509350935090919293565b600260009054906101000a900473ffffffffffffffffffffffffffffffffffffffff1681565b600260009054906101000a900473ffffffffffffffffffffffffffffffffffffffff1673ffffffffffffffffffffffffffffffffffffffff163373ffffffffffffffffffffffffffffffffffffffff16146107ed576040517f08c379a00000000000000000000000000000000000000000000000000000000081526004016107e490611022565b60405180910390fd5b806005819055507fa6dc15bdb68da224c66db4b3838d9a2b205138e8cff6774e57d0af91e196d622816040516108239190611126565b60405180910390a150565b600260009054906101000a900473ffffffffffffffffffffffffffffffffffffffff1673ffffffffffffffffffffffffffffffffffffffff163373ffffffffffffffffffffffffffffffffffffffff16146108be576040517f08c379a00000000000000000000000000000000000000000000000000000000081526004016108b590611106565b60405180910390fd5b80600360006101000a81548173ffffffffffffffffffffffffffffffffffffffff021916908373ffffffffffffffffffffffffffffffffffffffff160217905550600a60015461090e9190611172565b60048190555050565b600360009054906101000a900473ffffffffffffffffffffffffffffffffffffffff1681565b6000600554905090565b60055481565b600260009054906101000a900473ffffffffffffffffffffffffffffffffffffffff1673ffffffffffffffffffffffffffffffffffffffff163373ffffffffffffffffffffffffffffffffffffffff1614156109de576040517f08c379a00000000000000000000000000000000000000000000000000000000081526004016109d5906110c6565b60405180910390fd5b6005543414610a22576040517f08c379a0000000000000000000000000000000000000000000000000000000008152600401610a19906110e6565b60405180910390fd5b6000600260009054906101000a900473ffffffffffffffffffffffffffffffffffffffff16905033600260006101000a81548173ffffffffffffffffffffffffffffffffffffffff021916908373ffffffffffffffffffffffffffffffffffffffff1602179055508073ffffffffffffffffffffffffffffffffffffffff166108fc349081150290604051600060405180830381858888f19350505050158015610ad0573d6000803e3d6000fd5b507ff3ecb4dab83f41da3035ff9cb3a2ef0c3027ebb89ae4e4b822d7c109e869a2fc813334604051610b0493929190610eda565b60405180910390a150565b600260009054906101000a900473ffffffffffffffffffffffffffffffffffffffff1673ffffffffffffffffffffffffffffffffffffffff163373ffffffffffffffffffffffffffffffffffffffff1614610b9f576040517f08c379a0000000000000000000000000000000000000000000000000000000008152600401610b9690611002565b60405180910390fd5b80600260006101000a81548173ffffffffffffffffffffffffffffffffffffffff021916908373ffffffffffffffffffffffffffffffffffffffff1602179055507fa2ea9883a321a3e97b8266c2b078bfeec6d50c711ed71f874a90d500ae2eaf3681604051610c0f9190610ebf565b60405180910390a150565b600081359050610c29816114fa565b92915050565b600081359050610c3e81611511565b92915050565b600060208284031215610c5a57610c59611301565b5b6000610c6884828501610c1a565b91505092915050565b600060208284031215610c8757610c86611301565b5b6000610c9584828501610c2f565b91505092915050565b610ca781611208565b82525050565b610cb6816111cc565b82525050565b6000610cc782611156565b610cd18185611161565b9350610ce181856020860161123e565b610cea81611306565b840191505092915050565b60008154610d0281611271565b610d0c8186611161565b94506001821660008114610d275760018114610d3957610d6c565b60ff1983168652602086019350610d6c565b610d4285611141565b60005b83811015610d6457815481890152600182019150602081019050610d45565b808801955050505b50505092915050565b6000610d82601883611161565b9150610d8d82611317565b602082019050919050565b6000610da5602083611161565b9150610db082611340565b602082019050919050565b6000610dc8602583611161565b9150610dd382611369565b604082019050919050565b6000610deb602083611161565b9150610df6826113b8565b602082019050919050565b6000610e0e600883611161565b9150610e19826113e1565b602082019050919050565b6000610e31600383611161565b9150610e3c8261140a565b602082019050919050565b6000610e54601c83611161565b9150610e5f82611433565b602082019050919050565b6000610e77602783611161565b9150610e828261145c565b604082019050919050565b6000610e9a602483611161565b9150610ea5826114ab565b604082019050919050565b610eb9816111fe565b82525050565b6000602082019050610ed46000830184610cad565b92915050565b6000606082019050610eef6000830186610c9e565b610efc6020830185610cad565b610f096040830184610eb0565b949350505050565b6000608082019050610f266000830187610cad565b8181036020830152610f388186610cbc565b9050610f476040830185610eb0565b610f546060830184610eb0565b95945050505050565b60006020820190508181036000830152610f778184610cbc565b905092915050565b60006060820190508181036000830152610f998185610cf5565b90508181036020830152610fac81610e01565b9050610fbb6040830184610eb0565b9392505050565b60006020820190508181036000830152610fdb81610d75565b9050919050565b60006020820190508181036000830152610ffb81610d98565b9050919050565b6000602082019050818103600083015261101b81610dbb565b9050919050565b6000602082019050818103600083015261103b81610dde565b9050919050565b6000606082019050818103600083015261105b81610e01565b9050818103602083015261106f8185610cf5565b905061107e6040830184610eb0565b9392505050565b6000606082019050818103600083015261109e81610e24565b905081810360208301526110b181610e24565b90506110c06040830184610eb0565b92915050565b600060208201905081810360008301526110df81610e47565b9050919050565b600060208201905081810360008301526110ff81610e6a565b9050919050565b6000602082019050818103600083015261111f81610e8d565b9050919050565b600060208201905061113b6000830184610eb0565b92915050565b60008190508160005260206000209050919050565b600081519050919050565b600082825260208201905092915050565b600061117d826111fe565b9150611188836111fe565b9250817fffffffffffffffffffffffffffffffffffffffffffffffffffffffffffffffff04831182151516156111c1576111c06112a3565b5b828202905092915050565b60006111d7826111de565b9050919050565b600073ffffffffffffffffffffffffffffffffffffffff82169050919050565b6000819050919050565b60006112138261121a565b9050919050565b60006112258261122c565b9050919050565b6000611237826111de565b9050919050565b60005b8381101561125c578082015181840152602081019050611241565b8381111561126b576000848401525b50505050565b6000600282049050600182168061128957607f821691505b6020821081141561129d5761129c6112d2565b5b50919050565b7f4e487b7100000000000000000000000000000000000000000000000000000000600052601160045260246000fd5b7f4e487b7100000000000000000000000000000000000000000000000000000000600052602260045260246000fd5b600080fd5b6000601f19601f8301169050919050565b7f596f7520617265206e6f7420746865206f70706f6e656e740000000000000000600082015250565b7f4f6e6c7920746865206f776e65722063616e2073657420746865206c6576656c600082015250565b7f4f6e6c7920746865206f776e65722063616e207472616e73666572206f776e6560008201527f7273686970000000000000000000000000000000000000000000000000000000602082015250565b7f4f6e6c7920746865206f776e65722063616e2073657420746865207072696365600082015250565b7f4f70706f6e656e74000000000000000000000000000000000000000000000000600082015250565b7f5469650000000000000000000000000000000000000000000000000000000000600082015250565b7f596f7520616c7265616479206f776e207468697320506f6b656d6f6e00000000600082015250565b7f54686520707269636520646f6573206e6f74206d61746368207468652076616c60008201527f75652073656e7400000000000000000000000000000000000000000000000000602082015250565b7f4f6e6c7920746865206f776e65722063616e20696e697469617465206120626160008201527f74746c6500000000000000000000000000000000000000000000000000000000602082015250565b611503816111cc565b811461150e57600080fd5b50565b61151a816111fe565b811461152557600080fd5b5056fea2646970667358221220c8d98970f47bdc6cb35e14bb2b3095f833107316b79934737a62b682ff54853364736f6c63430008060033",
  "immutableReferences": {},
  "source": "// SPDX-License-Identifier: MIT\npragma solidity >=0.4.22 <0.9.0;\n\ncontract Pokemon {\n    string public name;\n    uint256 public level;\n    address public owner;\n    address public opponent;\n    uint256 public health;\n    uint256 public price;\n\n    event Battle(string winner, string loser, uint256 health);\n    event OwnerChanged(address newOwner);\n    event PriceChanged(uint256 newPrice);\n    event Sold(address oldOwner, address newOwner, uint256 price);\n\n    constructor(string memory _name, uint256 _level, uint256 _health, address _opponent, uint256 _price) {\n        name = _name;\n        level = _level;\n        owner = msg.sender;\n        opponent = _opponent;\n        health = _health;\n        price = _price;\n    }\n\n    function setLevel(uint256 _newLevel) public {\n        require(msg.sender == owner, \"Only the owner can set the level\");\n        level = _newLevel;\n    }\n\n    function transferOwnership(address _newOwner) public {\n        require(msg.sender == owner, \"Only the owner can transfer ownership\");\n        owner = _newOwner;\n        emit OwnerChanged(_newOwner);\n    }\n\n    function fightOrFlight(address _opponent) public {\n        require(msg.sender == owner, \"Only the owner can initiate a battle\");\n        opponent = _opponent;\n        health = level * 10;\n    }\n\n    function battle() public returns (string memory) {\n        require(msg.sender == opponent, \"You are not the opponent\");\n        uint256 opponentHealth = level * 10;\n        if (health > opponentHealth) {\n            emit Battle(name, \"Opponent\", health);\n            return \"You won the battle!\";\n        }\n        else if (health < opponentHealth) {\n            emit Battle(\"Opponent\", name, opponentHealth);\n            return \"You lost the battle :(\";\n        }\n        else {\n            emit Battle(\"Tie\", \"Tie\", health);\n            return \"The battle ended in a tie.\";\n        }\n    }\n\n    function setPrice(uint256 _newPrice) public {\n        require(msg.sender == owner, \"Only the owner can set the price\");\n        price = _newPrice;\n        emit PriceChanged(_newPrice);\n    }\n\n    function getPokemon() public view returns (address, string memory, uint256, uint256) {\n        return (owner, name, level, price);\n    }\n\n    function getPrice() public view returns (uint256) {\n        return price;\n    }\n\n    function buyPokemon() public payable {\n        require(msg.sender != owner, \"You already own this Pokemon\");\n        require(msg.value == price, \"The price does not match the value sent\");\n        address payable oldOwner = payable(owner);\n        owner = msg.sender;\n        oldOwner.transfer(msg.value);\n        emit Sold(oldOwner, msg.sender, msg.value);\n    }\n}",
  "sourcePath": "/Users/emregulay/WebstormProjects/blockchain-playground/contracts/Pokemon.sol",
  "compiler": {
    "name": "solc",
    "version": "0.8.6+commit.11564f7e.Emscripten.clang"
  },
  "schemaVersion": "3.4.13",
  "updatedAt": "2023-03-11T18:47:38.608Z",
  "networkType": "ethereum",
  "devdoc": {
    "kind": "dev",
    "methods": {},
    "version": 1
  },
  "userdoc": {
    "kind": "user",
    "methods": {},
    "version": 1
  }
}