{
  "contractName": "Pokemon",
  "abi": [
    {
      "inputs": [
        {
          "internalType": "string",
          "name": "_name",
          "type": "string"
        },
        {
          "internalType": "uint256",
          "name": "_level",
          "type": "uint256"
        },
        {
          "internalType": "uint256",
          "name": "_price",
          "type": "uint256"
        }
      ],
      "stateMutability": "nonpayable",
      "type": "constructor"
    },
    {
      "anonymous": false,
      "inputs": [
        {
          "indexed": false,
          "internalType": "string",
          "name": "winner",
          "type": "string"
        },
        {
          "indexed": false,
          "internalType": "string",
          "name": "loser",
          "type": "string"
        },
        {
          "indexed": false,
          "internalType": "uint256",
          "name": "health",
          "type": "uint256"
        }
      ],
      "name": "Battle",
      "type": "event"
    },
    {
      "anonymous": false,
      "inputs": [
        {
          "indexed": false,
          "internalType": "address",
          "name": "newOwner",
          "type": "address"
        }
      ],
      "name": "OwnerChanged",
      "type": "event"
    },
    {
      "anonymous": false,
      "inputs": [
        {
          "indexed": false,
          "internalType": "uint256",
          "name": "newPrice",
          "type": "uint256"
        }
      ],
      "name": "PriceChanged",
      "type": "event"
    },
    {
      "anonymous": false,
      "inputs": [
        {
          "indexed": false,
          "internalType": "address",
          "name": "oldOwner",
          "type": "address"
        },
        {
          "indexed": false,
          "internalType": "address",
          "name": "newOwner",
          "type": "address"
        },
        {
          "indexed": false,
          "internalType": "uint256",
          "name": "price",
          "type": "uint256"
        }
      ],
      "name": "Sold",
      "type": "event"
    },
    {
      "inputs": [],
      "name": "health",
      "outputs": [
        {
          "internalType": "uint256",
          "name": "",
          "type": "uint256"
        }
      ],
      "stateMutability": "view",
      "type": "function"
    },
    {
      "inputs": [],
      "name": "level",
      "outputs": [
        {
          "internalType": "uint256",
          "name": "",
          "type": "uint256"
        }
      ],
      "stateMutability": "view",
      "type": "function"
    },
    {
      "inputs": [],
      "name": "name",
      "outputs": [
        {
          "internalType": "string",
          "name": "",
          "type": "string"
        }
      ],
      "stateMutability": "view",
      "type": "function"
    },
    {
      "inputs": [],
      "name": "opponent",
      "outputs": [
        {
          "internalType": "address",
          "name": "",
          "type": "address"
        }
      ],
      "stateMutability": "view",
      "type": "function"
    },
    {
      "inputs": [],
      "name": "owner",
      "outputs": [
        {
          "internalType": "address",
          "name": "",
          "type": "address"
        }
      ],
      "stateMutability": "view",
      "type": "function"
    },
    {
      "inputs": [],
      "name": "price",
      "outputs": [
        {
          "internalType": "uint256",
          "name": "",
          "type": "uint256"
        }
      ],
      "stateMutability": "view",
      "type": "function"
    },
    {
      "inputs": [
        {
          "internalType": "uint256",
          "name": "_newLevel",
          "type": "uint256"
        }
      ],
      "name": "setLevel",
      "outputs": [],
      "stateMutability": "nonpayable",
      "type": "function"
    },
    {
      "inputs": [
        {
          "internalType": "address",
          "name": "_newOwner",
          "type": "address"
        }
      ],
      "name": "transferOwnership",
      "outputs": [],
      "stateMutability": "nonpayable",
      "type": "function"
    },
    {
      "inputs": [
        {
          "internalType": "address",
          "name": "_opponent",
          "type": "address"
        }
      ],
      "name": "fightOrFlight",
      "outputs": [],
      "stateMutability": "nonpayable",
      "type": "function"
    },
    {
      "inputs": [],
      "name": "battle",
      "outputs": [
        {
          "internalType": "string",
          "name": "",
          "type": "string"
        }
      ],
      "stateMutability": "nonpayable",
      "type": "function"
    },
    {
      "inputs": [
        {
          "internalType": "uint256",
          "name": "_newPrice",
          "type": "uint256"
        }
      ],
      "name": "setPrice",
      "outputs": [],
      "stateMutability": "nonpayable",
      "type": "function"
    },
    {
      "inputs": [],
      "name": "buyPokemon",
      "outputs": [],
      "stateMutability": "payable",
      "type": "function"
    }
  ],
  "bytecode": "0x60806040523480156200001157600080fd5b50604051620017cd380380620017cd8339818101604052810190620000379190620001ed565b82600090805190602001906200004f929190620000a8565b508160018190555033600260006101000a81548173ffffffffffffffffffffffffffffffffffffffff021916908373ffffffffffffffffffffffffffffffffffffffff1602179055508060058190555050505062000410565b828054620000b69062000307565b90600052602060002090601f016020900481019282620000da576000855562000126565b82601f10620000f557805160ff191683800117855562000126565b8280016001018555821562000126579182015b828111156200012557825182559160200191906001019062000108565b5b50905062000135919062000139565b5090565b5b80821115620001545760008160009055506001016200013a565b5090565b60006200016f620001698462000291565b62000268565b9050828152602081018484840111156200018e576200018d620003d6565b5b6200019b848285620002d1565b509392505050565b600082601f830112620001bb57620001ba620003d1565b5b8151620001cd84826020860162000158565b91505092915050565b600081519050620001e781620003f6565b92915050565b600080600060608486031215620002095762000208620003e0565b5b600084015167ffffffffffffffff8111156200022a5762000229620003db565b5b6200023886828701620001a3565b93505060206200024b86828701620001d6565b92505060406200025e86828701620001d6565b9150509250925092565b60006200027462000287565b90506200028282826200033d565b919050565b6000604051905090565b600067ffffffffffffffff821115620002af57620002ae620003a2565b5b620002ba82620003e5565b9050602081019050919050565b6000819050919050565b60005b83811015620002f1578082015181840152602081019050620002d4565b8381111562000301576000848401525b50505050565b600060028204905060018216806200032057607f821691505b6020821081141562000337576200033662000373565b5b50919050565b6200034882620003e5565b810181811067ffffffffffffffff821117156200036a5762000369620003a2565b5b80604052505050565b7f4e487b7100000000000000000000000000000000000000000000000000000000600052602260045260246000fd5b7f4e487b7100000000000000000000000000000000000000000000000000000000600052604160045260246000fd5b600080fd5b600080fd5b600080fd5b600080fd5b6000601f19601f8301169050919050565b6200040181620002c7565b81146200040d57600080fd5b50565b6113ad80620004206000396000f3fe6080604052600436106100a75760003560e01c806391b7f5ed1161006457806391b7f5ed146101ac578063935f9e2f146101d557806393694f67146101fe578063a035b1fe14610229578063c78bc15f14610254578063f2fde38b1461025e576100a7565b806306fdde03146100ac57806327a5428b146100d757806344e44545146101005780636fd5ae151461012b5780637633a22c146101565780638da5cb5b14610181575b600080fd5b3480156100b857600080fd5b506100c1610287565b6040516100ce9190610dac565b60405180910390f35b3480156100e357600080fd5b506100fe60048036038101906100f99190610b0c565b610315565b005b34801561010c57600080fd5b506101156103af565b6040516101229190610dac565b60405180910390f35b34801561013757600080fd5b506101406105d0565b60405161014d9190610f75565b60405180910390f35b34801561016257600080fd5b5061016b6105d6565b6040516101789190610f75565b60405180910390f35b34801561018d57600080fd5b506101966105dc565b6040516101a39190610d5a565b60405180910390f35b3480156101b857600080fd5b506101d360048036038101906101ce9190610b0c565b610602565b005b3480156101e157600080fd5b506101fc60048036038101906101f79190610adf565b6106d3565b005b34801561020a57600080fd5b506102136107bc565b6040516102209190610d5a565b60405180910390f35b34801561023557600080fd5b5061023e6107e2565b60405161024b9190610f75565b60405180910390f35b61025c6107e8565b005b34801561026a57600080fd5b5061028560048036038101906102809190610adf565b6109aa565b005b60008054610294906110c0565b80601f01602080910402602001604051908101604052809291908181526020018280546102c0906110c0565b801561030d5780601f106102e25761010080835404028352916020019161030d565b820191906000526020600020905b8154815290600101906020018083116102f057829003601f168201915b505050505081565b600260009054906101000a900473ffffffffffffffffffffffffffffffffffffffff1673ffffffffffffffffffffffffffffffffffffffff163373ffffffffffffffffffffffffffffffffffffffff16146103a5576040517f08c379a000000000000000000000000000000000000000000000000000000000815260040161039c90610e31565b60405180910390fd5b8060018190555050565b6060600360009054906101000a900473ffffffffffffffffffffffffffffffffffffffff1673ffffffffffffffffffffffffffffffffffffffff163373ffffffffffffffffffffffffffffffffffffffff1614610441576040517f08c379a000000000000000000000000000000000000000000000000000000000815260040161043890610e11565b60405180910390fd5b6000600a6001546104529190610fc1565b90508060045411156104d8577fbb2f0ea805934331e57b717f82a43aee6f727e9d937a5dd0fedfc8bce721f52e6000600454604051610492929190610dce565b60405180910390a16040518060400160405280601381526020017f596f7520776f6e2074686520626174746c6521000000000000000000000000008152509150506105cd565b80600454101561055a577fbb2f0ea805934331e57b717f82a43aee6f727e9d937a5dd0fedfc8bce721f52e600082604051610514929190610e91565b60405180910390a16040518060400160405280601681526020017f596f75206c6f73742074686520626174746c65203a28000000000000000000008152509150506105cd565b7fbb2f0ea805934331e57b717f82a43aee6f727e9d937a5dd0fedfc8bce721f52e60045460405161058b9190610ed4565b60405180910390a16040518060400160405280601a81526020017f54686520626174746c6520656e64656420696e2061207469652e0000000000008152509150505b90565b60015481565b60045481565b600260009054906101000a900473ffffffffffffffffffffffffffffffffffffffff1681565b600260009054906101000a900473ffffffffffffffffffffffffffffffffffffffff1673ffffffffffffffffffffffffffffffffffffffff163373ffffffffffffffffffffffffffffffffffffffff1614610692576040517f08c379a000000000000000000000000000000000000000000000000000000000815260040161068990610e71565b60405180910390fd5b806005819055507fa6dc15bdb68da224c66db4b3838d9a2b205138e8cff6774e57d0af91e196d622816040516106c89190610f75565b60405180910390a150565b600260009054906101000a900473ffffffffffffffffffffffffffffffffffffffff1673ffffffffffffffffffffffffffffffffffffffff163373ffffffffffffffffffffffffffffffffffffffff1614610763576040517f08c379a000000000000000000000000000000000000000000000000000000000815260040161075a90610f55565b60405180910390fd5b80600360006101000a81548173ffffffffffffffffffffffffffffffffffffffff021916908373ffffffffffffffffffffffffffffffffffffffff160217905550600a6001546107b39190610fc1565b60048190555050565b600360009054906101000a900473ffffffffffffffffffffffffffffffffffffffff1681565b60055481565b600260009054906101000a900473ffffffffffffffffffffffffffffffffffffffff1673ffffffffffffffffffffffffffffffffffffffff163373ffffffffffffffffffffffffffffffffffffffff161415610879576040517f08c379a000000000000000000000000000000000000000000000000000000000815260040161087090610f15565b60405180910390fd5b60055434146108bd576040517f08c379a00000000000000000000000000000000000000000000000000000000081526004016108b490610f35565b60405180910390fd5b6000600260009054906101000a900473ffffffffffffffffffffffffffffffffffffffff16905033600260006101000a81548173ffffffffffffffffffffffffffffffffffffffff021916908373ffffffffffffffffffffffffffffffffffffffff1602179055508073ffffffffffffffffffffffffffffffffffffffff166108fc349081150290604051600060405180830381858888f1935050505015801561096b573d6000803e3d6000fd5b507ff3ecb4dab83f41da3035ff9cb3a2ef0c3027ebb89ae4e4b822d7c109e869a2fc81333460405161099f93929190610d75565b60405180910390a150565b600260009054906101000a900473ffffffffffffffffffffffffffffffffffffffff1673ffffffffffffffffffffffffffffffffffffffff163373ffffffffffffffffffffffffffffffffffffffff1614610a3a576040517f08c379a0000000000000000000000000000000000000000000000000000000008152600401610a3190610e51565b60405180910390fd5b80600260006101000a81548173ffffffffffffffffffffffffffffffffffffffff021916908373ffffffffffffffffffffffffffffffffffffffff1602179055507fa2ea9883a321a3e97b8266c2b078bfeec6d50c711ed71f874a90d500ae2eaf3681604051610aaa9190610d5a565b60405180910390a150565b600081359050610ac481611349565b92915050565b600081359050610ad981611360565b92915050565b600060208284031215610af557610af4611150565b5b6000610b0384828501610ab5565b91505092915050565b600060208284031215610b2257610b21611150565b5b6000610b3084828501610aca565b91505092915050565b610b4281611057565b82525050565b610b518161101b565b82525050565b6000610b6282610fa5565b610b6c8185610fb0565b9350610b7c81856020860161108d565b610b8581611155565b840191505092915050565b60008154610b9d816110c0565b610ba78186610fb0565b94506001821660008114610bc25760018114610bd457610c07565b60ff1983168652602086019350610c07565b610bdd85610f90565b60005b83811015610bff57815481890152600182019150602081019050610be0565b808801955050505b50505092915050565b6000610c1d601883610fb0565b9150610c2882611166565b602082019050919050565b6000610c40602083610fb0565b9150610c4b8261118f565b602082019050919050565b6000610c63602583610fb0565b9150610c6e826111b8565b604082019050919050565b6000610c86602083610fb0565b9150610c9182611207565b602082019050919050565b6000610ca9600883610fb0565b9150610cb482611230565b602082019050919050565b6000610ccc600383610fb0565b9150610cd782611259565b602082019050919050565b6000610cef601c83610fb0565b9150610cfa82611282565b602082019050919050565b6000610d12602783610fb0565b9150610d1d826112ab565b604082019050919050565b6000610d35602483610fb0565b9150610d40826112fa565b604082019050919050565b610d548161104d565b82525050565b6000602082019050610d6f6000830184610b48565b92915050565b6000606082019050610d8a6000830186610b39565b610d976020830185610b48565b610da46040830184610d4b565b949350505050565b60006020820190508181036000830152610dc68184610b57565b905092915050565b60006060820190508181036000830152610de88185610b90565b90508181036020830152610dfb81610c9c565b9050610e0a6040830184610d4b565b9392505050565b60006020820190508181036000830152610e2a81610c10565b9050919050565b60006020820190508181036000830152610e4a81610c33565b9050919050565b60006020820190508181036000830152610e6a81610c56565b9050919050565b60006020820190508181036000830152610e8a81610c79565b9050919050565b60006060820190508181036000830152610eaa81610c9c565b90508181036020830152610ebe8185610b90565b9050610ecd6040830184610d4b565b9392505050565b60006060820190508181036000830152610eed81610cbf565b90508181036020830152610f0081610cbf565b9050610f0f6040830184610d4b565b92915050565b60006020820190508181036000830152610f2e81610ce2565b9050919050565b60006020820190508181036000830152610f4e81610d05565b9050919050565b60006020820190508181036000830152610f6e81610d28565b9050919050565b6000602082019050610f8a6000830184610d4b565b92915050565b60008190508160005260206000209050919050565b600081519050919050565b600082825260208201905092915050565b6000610fcc8261104d565b9150610fd78361104d565b9250817fffffffffffffffffffffffffffffffffffffffffffffffffffffffffffffffff04831182151516156110105761100f6110f2565b5b828202905092915050565b60006110268261102d565b9050919050565b600073ffffffffffffffffffffffffffffffffffffffff82169050919050565b6000819050919050565b600061106282611069565b9050919050565b60006110748261107b565b9050919050565b60006110868261102d565b9050919050565b60005b838110156110ab578082015181840152602081019050611090565b838111156110ba576000848401525b50505050565b600060028204905060018216806110d857607f821691505b602082108114156110ec576110eb611121565b5b50919050565b7f4e487b7100000000000000000000000000000000000000000000000000000000600052601160045260246000fd5b7f4e487b7100000000000000000000000000000000000000000000000000000000600052602260045260246000fd5b600080fd5b6000601f19601f8301169050919050565b7f596f7520617265206e6f7420746865206f70706f6e656e740000000000000000600082015250565b7f4f6e6c7920746865206f776e65722063616e2073657420746865206c6576656c600082015250565b7f4f6e6c7920746865206f776e65722063616e207472616e73666572206f776e6560008201527f7273686970000000000000000000000000000000000000000000000000000000602082015250565b7f4f6e6c7920746865206f776e65722063616e2073657420746865207072696365600082015250565b7f4f70706f6e656e74000000000000000000000000000000000000000000000000600082015250565b7f5469650000000000000000000000000000000000000000000000000000000000600082015250565b7f596f7520616c7265616479206f776e207468697320506f6b656d6f6e00000000600082015250565b7f54686520707269636520646f6573206e6f74206d61746368207468652076616c60008201527f75652073656e7400000000000000000000000000000000000000000000000000602082015250565b7f4f6e6c7920746865206f776e65722063616e20696e697469617465206120626160008201527f74746c6500000000000000000000000000000000000000000000000000000000602082015250565b6113528161101b565b811461135d57600080fd5b50565b6113698161104d565b811461137457600080fd5b5056fea26469706673582212201e68be864a98be1518d638b343c91406a73726eab42c41afd1a89d8b0213ed1464736f6c63430008060033",
  "immutableReferences": {},
  "source": "// SPDX-License-Identifier: MIT\npragma solidity >=0.4.22 <0.9.0;\n\ncontract Pokemon {\n    string public name;\n    uint256 public level;\n    address public owner;\n    address public opponent;\n    uint256 public health;\n    uint256 public price;\n\n    event Battle(string winner, string loser, uint256 health);\n    event OwnerChanged(address newOwner);\n    event PriceChanged(uint256 newPrice);\n    event Sold(address oldOwner, address newOwner, uint256 price);\n\n    constructor(string memory _name, uint256 _level, uint256 _price) {\n        name = _name;\n        level = _level;\n        owner = msg.sender;\n        price = _price;\n    }\n\n    function setLevel(uint256 _newLevel) public {\n        require(msg.sender == owner, \"Only the owner can set the level\");\n        level = _newLevel;\n    }\n\n    function transferOwnership(address _newOwner) public {\n        require(msg.sender == owner, \"Only the owner can transfer ownership\");\n        owner = _newOwner;\n        emit OwnerChanged(_newOwner);\n    }\n\n    function fightOrFlight(address _opponent) public {\n        require(msg.sender == owner, \"Only the owner can initiate a battle\");\n        opponent = _opponent;\n        health = level * 10;\n    }\n\n    function battle() public returns (string memory) {\n        require(msg.sender == opponent, \"You are not the opponent\");\n        uint256 opponentHealth = level * 10;\n        if (health > opponentHealth) {\n            emit Battle(name, \"Opponent\", health);\n            return \"You won the battle!\";\n        }\n        else if (health < opponentHealth) {\n            emit Battle(\"Opponent\", name, opponentHealth);\n            return \"You lost the battle :(\";\n        }\n        else {\n            emit Battle(\"Tie\", \"Tie\", health);\n            return \"The battle ended in a tie.\";\n        }\n    }\n\n    function setPrice(uint256 _newPrice) public {\n        require(msg.sender == owner, \"Only the owner can set the price\");\n        price = _newPrice;\n        emit PriceChanged(_newPrice);\n    }\n\n    function buyPokemon() public payable {\n        require(msg.sender != owner, \"You already own this Pokemon\");\n        require(msg.value == price, \"The price does not match the value sent\");\n        address payable oldOwner = payable(owner);\n        owner = msg.sender;\n        oldOwner.transfer(msg.value);\n        emit Sold(oldOwner, msg.sender, msg.value);\n    }\n}",
  "sourcePath": "/Users/emregulay/WebstormProjects/blockchain-playground/contracts/Pokemon.sol",
  "compiler": {
    "name": "solc",
    "version": "0.8.6+commit.11564f7e.Emscripten.clang"
  },
  "schemaVersion": "3.4.13",
  "updatedAt": "2023-03-10T08:07:58.978Z",
  "devdoc": {
    "kind": "dev",
    "methods": {},
    "version": 1
  },
  "userdoc": {
    "kind": "user",
    "methods": {},
    "version": 1
  }
}